{
  "contractName": "Election",
  "abi": [
    {
      "constant": true,
      "inputs": [],
      "name": "name",
      "outputs": [
        {
          "name": "",
          "type": "string"
        }
      ],
      "payable": false,
      "stateMutability": "view",
      "type": "function"
    },
    {
      "constant": true,
      "inputs": [
        {
          "name": "",
          "type": "uint256"
        }
      ],
      "name": "candidates",
      "outputs": [
        {
          "name": "name",
          "type": "string"
        },
        {
          "name": "voteCount",
          "type": "uint256"
        }
      ],
      "payable": false,
      "stateMutability": "view",
      "type": "function"
    },
    {
      "constant": true,
      "inputs": [],
      "name": "owner",
      "outputs": [
        {
          "name": "",
          "type": "address"
        }
      ],
      "payable": false,
      "stateMutability": "view",
      "type": "function"
    },
    {
      "constant": true,
      "inputs": [
        {
          "name": "",
          "type": "address"
        }
      ],
      "name": "voters",
      "outputs": [
        {
          "name": "voted",
          "type": "bool"
        },
        {
          "name": "vote",
          "type": "uint256"
        },
        {
          "name": "weight",
          "type": "uint256"
        }
      ],
      "payable": false,
      "stateMutability": "view",
      "type": "function"
    },
    {
      "inputs": [
        {
          "name": "_name",
          "type": "string"
        },
        {
          "name": "candidate1",
          "type": "string"
        },
        {
          "name": "candidate2",
          "type": "string"
        }
      ],
      "payable": false,
      "stateMutability": "nonpayable",
      "type": "constructor"
    },
    {
      "anonymous": false,
      "inputs": [
        {
          "indexed": false,
          "name": "candidateName",
          "type": "string"
        },
        {
          "indexed": false,
          "name": "voteCount",
          "type": "uint256"
        }
      ],
      "name": "ElectionResult",
      "type": "event"
    },
    {
      "anonymous": false,
      "inputs": [],
      "name": "VoteSubmitted",
      "type": "event"
    },
    {
      "constant": false,
      "inputs": [
        {
          "name": "voter",
          "type": "address"
        }
      ],
      "name": "authorize",
      "outputs": [],
      "payable": false,
      "stateMutability": "nonpayable",
      "type": "function"
    },
    {
      "constant": false,
      "inputs": [
        {
          "name": "voteIndex",
          "type": "uint256"
        }
      ],
      "name": "vote",
      "outputs": [],
      "payable": false,
      "stateMutability": "nonpayable",
      "type": "function"
    },
    {
      "constant": false,
      "inputs": [],
      "name": "end",
      "outputs": [],
      "payable": false,
      "stateMutability": "nonpayable",
      "type": "function"
    }
  ],
  "bytecode": "0x606060405234156200001057600080fd5b60405162000c2738038062000c2783398101604052808051820191906020018051820191906020018051820191905050336000806101000a81548173ffffffffffffffffffffffffffffffffffffffff021916908373ffffffffffffffffffffffffffffffffffffffff1602179055508260019080519060200190620000989291906200017c565b5060038054806001018281620000af919062000203565b916000526020600020906002020160006040805190810160405280868152602001600081525090919091506000820151816000019080519060200190620000f892919062000238565b5060208201518160010155505050600380548060010182816200011c919062000203565b9160005260206000209060020201600060408051908101604052808581526020016000815250909190915060008201518160000190805190602001906200016592919062000238565b50602082015181600101555050505050506200036f565b828054600181600116156101000203166002900490600052602060002090601f016020900481019282601f10620001bf57805160ff1916838001178555620001f0565b82800160010185558215620001f0579182015b82811115620001ef578251825591602001919060010190620001d2565b5b509050620001ff9190620002bf565b5090565b8154818355818115116200023357600202816002028360005260206000209182019101620002329190620002e7565b5b505050565b828054600181600116156101000203166002900490600052602060002090601f016020900481019282601f106200027b57805160ff1916838001178555620002ac565b82800160010185558215620002ac579182015b82811115620002ab5782518255916020019190600101906200028e565b5b509050620002bb9190620002bf565b5090565b620002e491905b80821115620002e0576000816000905550600101620002c6565b5090565b90565b6200032091905b808211156200031c57600080820160006200030a919062000323565b600182016000905550600201620002ee565b5090565b90565b50805460018160011615610100020316600290046000825580601f106200034b57506200036c565b601f0160209004906000526020600020908101906200036b9190620002bf565b5b50565b6108a8806200037f6000396000f300606060405260043610610083576000357c0100000000000000000000000000000000000000000000000000000000900463ffffffff1680630121b93f1461008857806306fdde03146100ab5780633477ee2e146101395780638da5cb5b146101f9578063a3ec138d1461024e578063b6a5d7de146102ad578063efbe1c1c146102e6575b600080fd5b341561009357600080fd5b6100a960048080359060200190919050506102fb565b005b34156100b657600080fd5b6100be610498565b6040518080602001828103825283818151815260200191508051906020019080838360005b838110156100fe5780820151818401526020810190506100e3565b50505050905090810190601f16801561012b5780820380516001836020036101000a031916815260200191505b509250505060405180910390f35b341561014457600080fd5b61015a6004808035906020019091905050610536565b60405180806020018381526020018281038252848181546001816001161561010002031660029004815260200191508054600181600116156101000203166002900480156101e95780601f106101be576101008083540402835291602001916101e9565b820191906000526020600020905b8154815290600101906020018083116101cc57829003601f168201915b5050935050505060405180910390f35b341561020457600080fd5b61020c610568565b604051808273ffffffffffffffffffffffffffffffffffffffff1673ffffffffffffffffffffffffffffffffffffffff16815260200191505060405180910390f35b341561025957600080fd5b610285600480803573ffffffffffffffffffffffffffffffffffffffff1690602001909190505061058d565b6040518084151515158152602001838152602001828152602001935050505060405180910390f35b34156102b857600080fd5b6102e4600480803573ffffffffffffffffffffffffffffffffffffffff169060200190919050506105c4565b005b34156102f157600080fd5b6102f96106c6565b005b600260003373ffffffffffffffffffffffffffffffffffffffff1673ffffffffffffffffffffffffffffffffffffffff16815260200190815260200160002060000160009054906101000a900460ff1615151561035757600080fd5b80600260003373ffffffffffffffffffffffffffffffffffffffff1673ffffffffffffffffffffffffffffffffffffffff168152602001908152602001600020600101819055506001600260003373ffffffffffffffffffffffffffffffffffffffff1673ffffffffffffffffffffffffffffffffffffffff16815260200190815260200160002060000160006101000a81548160ff021916908315150217905550600260003373ffffffffffffffffffffffffffffffffffffffff1673ffffffffffffffffffffffffffffffffffffffff1681526020019081526020016000206002015460038281548110151561044b57fe5b9060005260206000209060020201600101600082825401925050819055507f2397c444407a028e0b183eae7e6dc2726467845d90aa4df1beea91c026c340fb60405160405180910390a150565b60018054600181600116156101000203166002900480601f01602080910402602001604051908101604052809291908181526020018280546001816001161561010002031660029004801561052e5780601f106105035761010080835404028352916020019161052e565b820191906000526020600020905b81548152906001019060200180831161051157829003601f168201915b505050505081565b60038181548110151561054557fe5b906000526020600020906002020160009150905080600001908060010154905082565b6000809054906101000a900473ffffffffffffffffffffffffffffffffffffffff1681565b60026020528060005260406000206000915090508060000160009054906101000a900460ff16908060010154908060020154905083565b6000809054906101000a900473ffffffffffffffffffffffffffffffffffffffff1673ffffffffffffffffffffffffffffffffffffffff163373ffffffffffffffffffffffffffffffffffffffff1614151561061f57600080fd5b600260008273ffffffffffffffffffffffffffffffffffffffff1673ffffffffffffffffffffffffffffffffffffffff16815260200190815260200160002060000160009054906101000a900460ff1615151561067b57600080fd5b6001600260008373ffffffffffffffffffffffffffffffffffffffff1673ffffffffffffffffffffffffffffffffffffffff1681526020019081526020016000206002018190555050565b60008060009054906101000a900473ffffffffffffffffffffffffffffffffffffffff1673ffffffffffffffffffffffffffffffffffffffff163373ffffffffffffffffffffffffffffffffffffffff1614151561072357600080fd5b600090505b600380549050811015610842577f156b5ffaa1a96772b4d324b6a0492ba5c51abe8a2818c38a0d409faddb63578c60038281548110151561076557fe5b906000526020600020906002020160000160038381548110151561078557fe5b90600052602060002090600202016001015460405180806020018381526020018281038252848181546001816001161561010002031660029004815260200191508054600181600116156101000203166002900480156108265780601f106107fb57610100808354040283529160200191610826565b820191906000526020600020905b81548152906001019060200180831161080957829003601f168201915b5050935050505060405180910390a18080600101915050610728565b6000809054906101000a900473ffffffffffffffffffffffffffffffffffffffff1673ffffffffffffffffffffffffffffffffffffffff16ff00a165627a7a723058206735c92b4d7092f9858d858f9b4601743e5d8c5be65061b9c1acd08fbbb350f40029",
  "source": "pragma solidity ^0.4.0;\n\n/*\nElection contract that allows the owner to issue voting rights \nto anybody and also end the election and announce results\n*/\ncontract Election {\n    \n    struct Candidate {\n        string name;\n        uint voteCount;\n    }\n    \n    struct Voter {\n        bool voted;\n        uint vote;\n        uint weight;\n    }\n    \n    address public owner;\n    string public name;\n    mapping(address => Voter) public voters;\n    Candidate[] public candidates;\n    \n    event ElectionResult(string candidateName, uint voteCount);\n    event VoteSubmitted();\n    \n    function Election(string _name, string candidate1, string candidate2) public {\n        owner = msg.sender;\n        \n        name = _name;\n        //initialize list of candidates to vote for\n        candidates.push(Candidate(candidate1, 0));\n        candidates.push(Candidate(candidate2, 0));\n    }\n    \n    function authorize(address voter) public {\n        //make sure only owner can authorize voting rights\n        require(msg.sender == owner);\n        //make sure voter has not already voted\n        require(!voters[voter].voted);\n\n        //assign voting rights\n        voters[voter].weight = 1;\n    }\n    \n    function vote(uint voteIndex) public {\n        //make sure voter has not already voted\n        require(!voters[msg.sender].voted);\n        \n        //record vote\n        voters[msg.sender].vote = voteIndex;\n        voters[msg.sender].voted = true;\n        \n        //increase candidate vote count by voter weight\n        candidates[voteIndex].voteCount += voters[msg.sender].weight;\n        VoteSubmitted();\n    }\n    \n    function end() public {\n        //make sure only owner can end voting\n        require(msg.sender == owner);\n        \n        //announce each candidates results\n        for(uint i=0; i < candidates.length; i++){\n            ElectionResult(candidates[i].name, candidates[i].voteCount);\n        }\n        \n        //destroy the contract\n        selfdestruct(owner);\n    }\n}\n\n// to do:\n// add an admin section\n//  auth all users // by address (index.html + app.js)\n//  get systemMap. Map map map (TANGO? FFXV Orthos66)\n// struct(variables,descriptions)\n// mapping(address => struct) nameOfInstance[]",
  "sourcePath": "/Users/sseann/DEV/election/contracts/election.sol",
  "compiler": {
    "name": "solc",
    "version": "0.4.19+commit.c4cbbb05.Emscripten.clang"
  },
  "schemaVersion": "2.0.0",
  "updatedAt": "2018-04-04T18:33:21.236Z"
}